:10000000F8170020D50E000075500000C10E00004A
:10001000C10E0000C10E0000C10E0000C10E0000A4
:100020000000000000000000000000003D10000083
:10003000C10E000000000000D10F0000C10E000042
:10004000C9110000C9110000C9110000C911000048
:10005000C9110000C9110000C9110000C911000038
:10006000C9110000C9110000C9110000C911000028
:10007000C9110000C9110000C9110000C911000018
:1004800053B94AB9002908BF00281CBF4FF0FF31FB
:100490004FF0FF3000F00CB8ADF1080C6DE904CE60
:1004A00000F008F8DDF804E0DDE9022304B070474D
:1004B000704700BF2DE9F04786468C460846089EE7
:1004C000154674461946002B40F0C1808542B2FAA9
:1004D00082F245D94AB1C2F1200300FA02FC9540EC
:1004E00094402EFA03F343EA0C0C4FEA154EA8B2DF
:1004F000230CBCFBFEF80EFB18CC08FB00F943EA0A
:100500000C43994528D9EB1808F1FF3704D29945D7
:1005100002D9A8F102072B44A3EB0903A4B2B3FB51
:10052000FEFC0EFB1C330CFB00F044EA0344A0422B
:1005300014D92C190CF1FF3304D2A04202D9ACF12A
:1005400002032C44241A43EA07401EB1D44000237E
:1005500034607360BDE8F0874746DDE76346F1E746
:1005600092BB431B01214FEA154EAFB2200CB3FBE7
:10057000FEFC0EFB1C330CFB07F840EA03439845D6
:1005800061D9EB180CF1FF3004D2984502D9ACF1D7
:1005900002002B44A3EB0803A4B2B3FBFEFC0EFB4A
:1005A0001C330CFB07F744EA0344A7424DD92C192E
:1005B0000CF1FF3304D2A74202D9ACF102032C4460
:1005C000E41B43EA0040C0E7C2F120039540944099
:1005D00020FA03F12EFA03F34FEA154E9040AFB222
:1005E0000343B1FBFEFC0EFB1C10190C0CFB07F8BF
:1005F00041EA0041884522D969180CF1FF3004D244
:10060000884502D9ACF102002944A1EB08019BB254
:10061000B1FBFEFC0EFB1C110CFB07F743EA014388
:100620009F420ED9EB180CF1FF3104D29F4202D940
:10063000ACF102012B44DB1B41EA004193E7604629
:10064000E3E76146F7E76046A4E76346B8E783421D
:1006500006D916B9002108467CE7C6E900E0F9E7AB
:10066000B3FA83F78FB9834201D3724508D8BEEB42
:10067000020460EB030301209C461EB9002169E7D8
:100680003846FAE7C6E9004CF8E7C7F1200CBB4052
:100690000EFA07F522FA0CF42EFA0CF1BA401C43BC
:1006A00020FA0CF3B8404FEA144901431FFA84FEC4
:1006B000B3FBF9F809FB18300B0C08FB0EFA43EA00
:1006C00000439A4540D9E31808F1FF3004D29A4517
:1006D00002D9A8F102002344A3EB0A0389B2B3FBB9
:1006E000F9F809FB183308FB0EFE41EA03418E4579
:1006F0002CD9611808F1FF3304D28E4502D9A8F134
:100700000203214443EA0040A1EB0E01A0FB029842
:100710004145CE46434602D306D14D4504D2013869
:10072000B9EB020E68EB0403002EA7D0B5EB0E0266
:1007300061EB030101FA0CFC22FA07F3F9404CEAE1
:100740000303C6E9003199E74046C5E74346D9E7C8
:100750002DE9F04F80460D4687B0214F0021BB6840
:100760003846029304AA5B689847002831DBDDE92C
:10077000044BA8FB042308FB0B3803924FF0FF3A0D
:1007800015A3D3E9002341460398FFF779FE039BA5
:10079000DFF850909A4579EB0803064619D3A5FB7C
:1007A000044305FB0B350CA3D3E90023294620465F
:1007B000FFF766FEA24579EB0505034609D386429D
:1007C00007D300220092029A00211468384632466C
:1007D000A04707B0BDE8F08F00CA9A3B00000000B8
:1007E000BC5C0000FFC99A3B08B5054804F05CFFFB
:1007F00028B1BDE808400121014804F04ABA08BD0B
:10080000A85C000008B5054804F04EFF28B1BDE81B
:1008100008400021014804F03CBA08BDA85C000073
:100820002DE9F84F354804F03FFF002862D0344CE2
:10083000204604F039FF00285CD02269A1681368C3
:10084000204623F0010313600B684FF4C0220021FF
:10085000984700284ED14FF47A7004F028FADFF858
:10086000A490294D4FF0000B4FF00A0A274F284E55
:1008700037F8024B36F8028B34BBFFF7C3FF204634
:100880002146FFF765FF40460BF1010B04F00FFA1C
:10089000BBF11E0FECD14FF4FA6004F008FAFFF739
:1008A000A3FF28461B49FFF753FF4FF4FA7004F0EB
:1008B000FEF928460021FFF74BFFFFF7A3FF41F2A7
:1008C000883004F0F4F9CDE7FFF78EFFB9FBF4F4BC
:1008D00004EBC401B1FBFAF12046FFF739FF4046B3
:1008E00004F0E5F920460021FFF732FFFFF78AFF09
:1008F0001E20C9E70020BDE8F88F00BFBC5C0000E7
:10090000A85C000000CA9A3B90D00300647A000003
:10091000287A0000E86E0300014B1B68184700BFEF
:100920000000002030B585B004460D46102200219D
:10093000684605F003F902238DF80230044B2A467D
:1009400021466846019303F049FF05B030BD00BF62
:100950001909000080B505460E461746984603F073
:10096000A1FA034605F054F90446DFF81890424610
:1009700049F8003039463046A84754F8090000F0DD
:1009800011FB00BF080000002DE9F047058B04466D
:100990002807904611D4022905F0070540F0CC80C5
:1009A000204604F085FA78B10138218B042811D84B
:1009B000DFE800F0C2106D85950001290CBF45F0FD
:1009C000100545F02005258388F31188BFF36F8F4C
:1009D000BDE8F08701F0070AAA4500F0A5800027CE
:1009E000B9463E46A368002B00F0BC8041F00801E8
:1009F000218388F31188BFF36F8FA168002900F06D
:100A0000BA800D68002900F0B68033465246204671
:100A1000D1F80480C047002D76D02B6829461D46AA
:100A2000F0E701F007035A1F012A1BD8002221F02A
:100A30000701062B276889B2C4E9002209D13B4689
:100A400003E0628B013262831B68002BF9D141F015
:100A500002012046218304F02BFA00287AD041F0CD
:100A6000200176E0042B0AD121F0070189B220464B
:100A7000218304F01DFA10B141F020012183218B64
:100A800001F0070AAA454FD00027B946AAE7236913
:100A900021F0070141F00601062DD3F800902183D3
:100AA0002DD1B9F1000F3FD041F00801218388F327
:100AB0001188BFF36F8F20463949C84729E021F0DC
:100AC0000701236941F0040189B2042DD3F8049091
:100AD0002183E6D000274FF0040A3E4682E721F04A
:100AE0000701236941F0050189B2052DD3F808906B
:100AF0002183D6D000274FF0050A3E4672E7002733
:100B00004FF0060A3E466DE72B4687E7B9F1000F26
:100B1000D1D1EFF31188202383F31288BFF36F8FB5
:100B2000238B23F008032383258BEA062ED525F09B
:100B30001003238305F007056669218B002EBFF69D
:100B400070AF00232768C4E9003321F0070141F0AA
:100B500001012183218B4FF0000901F0070AAA450A
:100B60007FF440AF002F9CD041F00801218388F32F
:100B70001188BFF36F8F002FC8D03D6839463346C8
:100B80005246204604F0C0F92F46F4E7AB067FF545
:100B90001BAF25F02003238305F0070500E700BF06
:100BA000354F0000014B036000207047C86500000E
:100BB00008B5044804F06FF9BDE80840024804F0A5
:100BC0006AB900BFA07A0000D57A000030BFFFF7F5
:100BD000FDBF00BF2DE9F04105460B4EDFF82C802C
:100BE000324606EB0807CC1B2046094904F099FF62
:100BF000A01942460021083C04F0A0FFC5F880403F
:100C000007F10800BDE8F0810000000004000000CA
:100C100090650000074A936893F90E10002907DBDE
:100C2000526993421FBF044A536843F08053536094
:100C3000704700BF7804002000ED00E0154B9A6A71
:100C400012F0007F9A6A14BF1E201D2012F0807FD0
:100C50009A6A18BF1F2012F4801F9A6A18BF0220D8
:100C600012F4002F9A6A18BF212012F4802F9A6A7A
:100C700018BF222012F4003F9A6A18BF232012F4F2
:100C8000803F9A6A18BF24206FEA02426FEA12423C
:100C90009A62704700ED00E010B5194B0246986A61
:100CA0009C6A10F4805F14BF1720162014F4006FA4
:100CB0009C6A18BF1820A40509D5986B986A00048F
:100CC00004D51AB19A6A22F400429A6219200C4B98
:100CD0009A6A12F4806F9A6A18BF1A20D2050CD44F
:100CE0009B6A13F4005F18BF1C20054A936A43F403
:100CF0007F43936200230B7010BD1B20F5E700BFFC
:100D000000ED00E010B51C4B0246986A9C6A10F09A
:100D1000100F14BF1120102014F0080F9C6A18BF88
:100D20001220A40709D5586B986A000604D51AB199
:100D30009A6A22F080029A6213200F4B9A6A12F08C
:100D4000010F9A6A18BF142012F0200F9A6A18BF78
:100D50001520D40658BF9B6A074B9A6A920642BF79
:100D60005A6A22F400525A629A6A42F0FF029A6268
:100D700000230B7010BD00BF00ED00E0F0B5474B45
:100D800004465B6800258BB0C3F3080385F3118824
:100D9000BFF36F8F02F07F40B0F17F4F11D102F0AF
:100DA0000C0008280DD010074CBF0C46012500226E
:100DB000033B8DF80720032B05D8DFE803F02462FE
:100DC000665F2C46F3E700239DF80720CAB902AE00
:100DD00004F12007324620686168083403C2BC422F
:100DE0001646F7D1099A002D53D0C2F3080121B954
:100DF0006FEA52226FEA42220992184602A904F0D1
:100E00002FF90BB0F0BD254BDA6A9107DBD4DA6A13
:100E1000002AD8DBDA6A5200D5D55A69A16942F4B2
:100E200080725A61BFF34F8FBFF36F8F5A6931F8E9
:100E3000021C22F480725A61BFF34F8FBFF36F8F91
:100E40004DF60272914209D09A6AD2B242B10120A3
:100E50000DF10701FFF756FF0346B5E72368B3E737
:100E60009A6A12F47F4F05D001200DF10701FFF7B8
:100E700013FFF1E79B6AB3F5803FA4D3FFF7DEFED3
:100E8000EAE700200DF10701E4E700200DF107017A
:100E9000EDE722F4FF7222F00102ADE700ED00E081
:100EA000064B5A6942F010025A615A6942F4806254
:100EB0005A615A6922F008025A61704700ED00E059
:100EC000EFF30880EFF3098101B57246FFF756FF93
:100ED00001BD00BF002080F31488BFF36F8F002096
:100EE00080F30A8880F30B880F4880F3088801F0AC
:100EF000E3F800200D490860BFF34F8F00F02CF895
:100F0000202080F311880A484FF40061401880F3D4
:100F10000988EFF314800221084380F31488BFF39B
:100F20006F8F00F0E3F80000F817002094ED00E068
:100F3000B80A0020002318460649D1F89020C2F3D1
:100F40000722934200DB7047C1F89830C1F8A00037
:100F50000133F6E700ED00E010B572B6002484F32B
:100F60001388FFF7E7FF23464FF0FF300C4A03F1E9
:100F700020010133102B42F82100F8D100234FF05B
:100F8000FF30074A03F160010133102B42F82100C2
:100F9000F8D162B6BFF34F8FBFF36F8F10BD00BFA4
:100FA00000E100E0084B9B6883420BD1EFF305831F
:100FB00043B1064B5A6842F080525A605A6A22F492
:100FC00000425A6202F074BF7804002000ED00E095
:100FD00017498A684FF030001044EFF3098C80E81D
:100FE000F01F202080F31288BFF36F8F114F4FF056
:100FF00000664A698A603E604FF0800414192068D8
:101000000D4C2060D2F884000023C2F8843080F3B5
:10101000118802F1300090E8F01F8CF3098802F18A
:10102000000004B504F031F8BDE80440704700004A
:101030007804002004ED00E0A00300201EF0040F5F
:101040000CBFEFF30880EFF30980816911F8021CEF
:101050000229FFD001B5724604F008F801BD00BFB7
:1010600000B2002807DB01234109034A00F01F00FA
:10107000834042F82130704700E100E000B20028D0
:101080000CDB01220649430900F01F008240203397
:1010900041F82320BFF34F8FBFF36F8F704700BF1E
:1010A00000E100E0054B420953F82220012300F043
:1010B0001F0003FA00F01040704700BF00E100E09D
:1010C00000B2002801F10101ACBF00F16040064B05
:1010D0004FEA4111C9B2ABBF00F5614000F00F000B
:1010E00080F800131954704714ED00E00B4A08B55E
:1010F0000B4B22F07F029A60BFF34F8FBFF36F8FCD
:10110000D3F8882022F47002C3F8882002F04EFA47
:1011100002F0DCFF00F048F802F088FA000000005E
:1011200000ED00E042F8203C009B0B4942F81C3CDB
:10113000019B21F0010142F8183C029B42F8081C77
:1011400042F8143C4FF0807342F8043C0023203AEC
:101150000265C0F8843070475509000000B50B4B9C
:1011600015469860D0F88020094B0E461A60036F30
:1011700083F30B882C4686F309880020054B98479B
:101180002046002100220023034C20477804002041
:10119000A003002093500000550900001022014BCD
:1011A0001A61704700ED00E00023202040F20F128A
:1011B00010B5044CE1180133934281F80003F9D1D2
:1011C00010BD00BF00E100E008B5EFF30583064A5B
:1011D000103B02EBC30152F8330049688847BDE871
:1011E0000840FFF717BD00BFD05C00001FB5094CD9
:1011F000094A23460121094800F0FAF80023039325
:10120000074B0121E41A01A80193029400F0FAF8B7
:1012100004B010BD00F0022000000020C8650000EE
:10122000C801002010B50C7A0B6804F01F0223F0EF
:101230001F031A43CB68640923F01F03054943EADF
:10124000440343F00103C1F89800C1F89C20C1F8A1
:10125000A03010BD00ED00E010B5074BD3F8903082
:10126000C3F30723013B984202D8FFF7DBFF10BD11
:101270006FF01500FBE700BF00ED00E02DE9F04F37
:101280000F46144606464FF000084D4D85B0B84550
:1012900080F29280D6F80490B9F1000F36D0B9F1FF
:1012A0001F0F40F2878019F01F0F40F08380D6F89F
:1012B00000A01AF01F0F7DD1504603F00DFF8346AA
:1012C00009EB0A00013803F007FF834572D11BF1D7
:1012D000160F6FD05C456DDDC5F898B0D5F89C1041
:1012E000C5F898B0D5F8A03021F01F0143F01F0ACF
:1012F000D6E900321A44994202F1FF391ED1CA459B
:1013000008D131465FFA8BF003F0EFFE08F10108D7
:101310000C36BCE73146C5F898B0D5F89C3022F0C1
:101320001F0203F01F031343C5F89C30E0B203F023
:10133000DCFE10F1160F3DD0441CE7E7C5F898B06D
:10134000D5F8A020013B23F01F0302F01F02134336
:10135000CA453146E0B2C5F8A030E8D003F0C5FE7A
:1013600010F1160F26D0C5F898B0D5F89C209DF83E
:1013700008300AF1FF3A62F304038DF80830D5F81B
:10138000A0309DF808205B0863F347128DF8082011
:10139000D6E900321344009323F01F035344A3EB18
:1013A0000903013023F01F036946C0B20393FFF71E
:1013B00053FFBEE76FF01504204605B0BDE8F08F7F
:1013C00000ED00E00522044BC3F89420BFF34F8FDB
:1013D000BFF36F8F704700BF00ED00E0BFF35F8F7A
:1013E0000022024BC3F89420704700BF00ED00E0DC
:1013F00010B5034C2278FFF741FF207010BD00BFED
:10140000B00A00202DE9F74F294D8A4606464FF0D5
:101410000008AB46274FD0451BDAD6F80490B9F147
:10142000000F3FD031680846019103F055FE019945
:10143000044609EB0100013803F04EFE84424FF0F0
:1014400014021D4B08D002FB08F36FF015024BF895
:10145000032003B0BDE8F08F14F1160F2C60F8D014
:101460001978A142F5DD02FB08B0C7F89840C7F82B
:101470009840D7F89C4000F10801007B64F3040019
:101480000871D7F8A0000C79400860F347140C717C
:10149000D7F89C1021F01F016960D7F8A01021F047
:1014A0001F01296108F1010814350C36B3E700BFAC
:1014B000A403002000ED00E0B00A0020F0B541498F
:1014C000414CD1F890302568C3F307239D4287B083
:1014D00075D80020FFF782FF3C4BC1F8C030854231
:1014E00016D13B4C01A82570FFF75CFB0025064692
:1014F000384FAE4213D1002023783249D1F89020E2
:10150000C2F30722934254DBFFF75CFF00202FE079
:10151000616801EB0011FFF785FE0130DFE70199FB
:10152000280101EB0513DA683A40B2F5001F21D01B
:10153000B2F5800F2BD0B2F5801F38D15A689B6866
:101540000958013B22F01F0003440120844623F088
:101550001F0340EA4C10CDE902218DF8100002A9CA
:1015600020780593FFF778FE00281DDA6FF015004C
:1015700007B0F0BD5A689B680958013B22F01F0074
:1015800003444FF0020C012023F01F03E1E75A68E7
:101590009B680958013B22F01F0003444FF0000CE8
:1015A000062023F01F03D4E723780133237001358D
:1015B0009FE7C1F89830C1F8A00001339EE74FF0D3
:1015C000FF30D5E700ED00E0D4650000AAFF44003D
:1015D000B00A00200000F0FF08B50649064821F0D7
:1015E0000701C1F1005202F53C3203F0FAFB002082
:1015F00008BD00BFFF170020B803002008B5284A27
:10160000284B1A6000F066F841F6F8732648D0F8C7
:101610002416C1F3080203EA5133132182F48072C5
:10162000883201FB0233214A590ADB0548BF0131E8
:10163000C2F80419D0F820364FF47A60C3F30801D9
:10164000C3F30943434342F21C5081F4807101F219
:10165000172100FB01334FF47A701B0AB3FBF0F142
:1016600000FB1133B3F5FA7F28BF01310E4BC2F8EE
:101670001C17D3F840131C290CD1D3F84433012B89
:1016800008D13423C2F82436D2F83C3623F40023A0
:10169000C2F83C360122054B0020C3F8002608BDE5
:1016A0000020A1071000002000C0FF000000125021
:1016B00048B1054B054A1B68B3FBF2F35843044B92
:1016C00043F00103184770471000002040420F000C
:1016D000B06500000122024BC3F80424704700BF2C
:1016E000002008E0084B70B5C31A0D4607499B104F
:1016F000044659434022064803F019FD2B46014693
:101700002046BDE870401847D8030020B76DDBB60F
:101710006C5C0000402373B50B4C0093041B0B461C
:101720000D460A49A41061430646094A094803F0D8
:101730002AFD011E05DA30462B4602B0BDE8704096
:10174000184702B070BD00BFD8030020B76DDBB6EC
:10175000F15100006C5C000010B5EFF31184202300
:1017600083F31288BFF36F8F074A136823F00201D7
:10177000DB07116002D4012003F064FE84F31188BA
:10178000BFF36F8F10BD00BF2804002070B500228A
:101790000121044640F20510FFF792FC0F4800F0CB
:1017A000AFFD0F4B984215D100F0BAFD26690D49E7
:1017B000304603F0CCFB00280BDB0125356424699F
:1017C000084904F11C0003F0C2FB002801DB0020E3
:1017D000E56470BD6FF00400FBE700BF1552000028
:1017E0000000AD0BFC6500001FB500220123CDE910
:1017F00002236B46084ACDF800D0CDF804D003F0A0
:10180000F0FC002805DB43F609520023684602F08D
:1018100075F805B05DF804FB0F5200000C22104B68
:10182000014602FB0033002030B4D3E90E52986326
:10183000EFF31180202484F31288BFF36F8F1C6CA8
:1018400004F0C00444F002041C6480F31188BFF368
:101850006F8F1DB12B4630BC0248184730BC704713
:10186000D80300206C5C000010B4EFF31182202339
:1018700083F31288BFF36F8F1648016841F00204AA
:101880000460C80707D482F31188BFF36F8F01206B
:1018900010BC00F05BBD1049D1F80C14C903F2D59F
:1018A000EFF3118083F31288BFF36F8F0B490B6C3A
:1018B00003F0C00343F002030B6480F31188BFF30D
:1018C0006F8F82F31188BFF36F8F002010BCFFF77A
:1018D000A5BF00BF2804002000E01050D80300205E
:1018E0002DE9F041012207463449D1E8EF3FC1E834
:1018F000E02F0028F9D133B9314932484B60CB6031
:101900008A6003F037FB7B1E012B28D8012F06D1FC
:101910002D4BD3F8503403F00303012B1FD003F0F9
:1019200009FF0546E8B9294B1B78D3B104220646C6
:10193000254BC3F80823244CDFF89480D4F84C24BA
:10194000D4F84C34D20315D503F00303012B01D096
:10195000012F0FD165B386F31188BFF36F8FBDE8F8
:10196000F081EFF31186202383F31288BFF36F8F8A
:101970000125E0E7BDB1304603F09FFBD4F84034C9
:1019800013F0FF03DAD1D4F80821002AD6D0C4F826
:101990000831D4F8083120220123C4F84034C8F8B3
:1019A000A0212361CAE70021202003F039FFE5E7E9
:1019B0000422054BC3F80423D1E700BFD403002061
:1019C000C4030020F403002000E01050B10A0020FE
:1019D00000E100E038B545682B69E3B110352846D1
:1019E00001F032F90446B0B90146284601F0EEF89C
:1019F0000B4B984211D1224628460A4901F0BAF809
:101A000022460121DB20FFF75BFB2246012140F249
:101A10000D10FFF755FB002038BD6FF00400FBE709
:101A20000000AD0BAD1B00002DE9F04340F2063580
:101A30004668D00648BF0320337B02EA050558BF3D
:101A4000C2F3401087B001F01F07B5F5837F14463D
:101A500047EA43178DF8030046D00FD8062D45D02E
:101A600007D8B5B1022D14D06FF0150007B0BDE84E
:101A7000F083B5F5807FF7D101250AE040F202221C
:101A8000954235D0B5F5407F34D0B5F5007FEBD128
:101A900004250123220303FA01F12DD5736859604F
:101AA000326972BB5F2F07F01F034FEA571175D8D9
:101AB0003C4A52F8212084F4803102EB8302D2F8B0
:101AC0008030C1F30041C4F3404423F4706344EA1E
:101AD000410423F00F031C4344EA800444EA052434
:101AE000C2F880400020C1E70925D2E70825D0E7E9
:101AF0000625CEE70525CCE7630344BF73689960EC
:101B0000CEE71036394630460DF1020201F040F8BA
:101B100014F4403F80460CD13946304603F057FD5F
:101B2000214B9845DED130469DF8021001F09AF81D
:101B3000D8E74FF0000901AB3946304603AACDE99A
:101B40000439CDE90199CDF80C9000F089FE164BCF
:101B5000984289D114F4003315D09DF8033084F4F1
:101B60008034C4F300448DF80E3039464B4630467D
:101B700003AA8DF80C508DF80D4000F067FF0A4B5A
:101B80009842CDD070E7CDE9043339460DF1030317
:101B9000304603AA039300F063FEF0E7203352F8C7
:101BA0002330FFDE186600000000AD0B4209022A58
:101BB000034670B503D0012A18D0CAB170BD0E4ECD
:101BC000326951680029F9D0012503F01F030C6820
:101BD0009D400029F2D08A682A4002D030464B68E6
:101BE00098473CB1236821461C46F2E7034EE7E7DD
:101BF000034EE5E72346F6E7A85C0000945C00008E
:101C0000805C0000F0B5406801F01F04057B87B0E0
:101C100044EA45140569002D63D0B2F5001F00F1B8
:101C2000100506D12146284603F0D3FC002007B05A
:101C3000F0BD0027B2F5800F01AE019777603BD170
:101C4000B3F1007F14BF052304238DF80430002373
:101C5000CDE904630393836823FA01F111F00101D4
:101C60001CD1B2F1A07F19D104F01F035F2C4FEA01
:101C7000541003F120033AD81E4A52F8202052F89B
:101C80002330DB070AD40DF10306324621462846ED
:101C900000F07EFF184B984219D002962146284644
:101CA00003AA00F0DDFD154B98421DD1012221460B
:101CB000284600F0EFFFB9E7B3F1C06F05D0B3F1EC
:101CC000007F14BF01230223BFE70323BDE7314692
:101CD000284600F0D3FF094B9842DED06FF00B008E
:101CE000A5E76FF08500A2E76FF015009FE751F8B8
:101CF0002330FFDE186600000400AD0B0000AD0BC2
:101D0000036803F01F025F2B02604FEA53129ABF71
:101D1000024B53F822000020704700BF6C660000A1
:101D20002DE9F04F9246054640F2FF17DFF8288173
:101D3000DFF8289185B000EB8101A94203D1002092
:101D400005B0BDE8F08F2A68C2F3C323082BC2F3A5
:101D500008047DD8BC4208BF4FF0FF34B2F1D05F19
:101D600018F803604FEA126307D2152B08D8052B29
:101D700013D0062B44D0042B09D06FF08500DFE789
:101D8000173B022B43D8DFE803F0575A5D00621C73
:101D9000CAF8004659D10435CFE7631CCAF8044697
:101DA000F9D04FF0010B03A80394FFF7A9FF01221C
:101DB000039B02FA03F383602B68039403F400404F
:101DC000002818BF002203A818BF4FF0010B019391
:101DD0000092FFF795FF039C019B00EB8400D0F875
:101DE0008040C3F3412C009A330243EA8C0313432F
:101DF00004EA0904234343EA4B03C0F88030CAE7EE
:101E0000601CCAF80846C6D04FF0000B12E0CAF8B2
:101E10006045621C2B68BED0C3F30043002BC0D0CA
:101E20004FF0010B03A80394FFF76AFF039B0BFA23
:101E300003F343605A46BFE7CAF86445E9E7CAF8C6
:101E40006845E6E7CAF86C45E3E74FF0000BAAE700
:101E50006FF0150074E700BF417B0000F0F0FCFF5D
:101E6000036803F01F025F2B02604FEA53129ABF10
:101E7000024B53F822000020704700BF7866000034
:101E800073B5044600220121D220FFF719F96068DA
:101E90002369234A00F1080101F034FA214B9842EA
:101EA0003BD165680021AE6B01AA304603F009FA08
:101EB000002805DB019B326819791868FFF730FFAD
:101EC000002631462B6801F5AC7253F82230002B06
:101ED0000DDB01A80193FFF7C3FF019A0368D3400C
:101EE00013F001031CBF01238B403343DEB20131E9
:101EF0000429E7D1002301206268916A00FA03F205
:101F000032420CBF01220022D20321F813200133F8
:101F1000042BF1D1002002B070BD6FF00F00FAE782
:101F2000E95200000000AD0B73B514461D4668462B
:101F300000F078FF009BA342019BAB4114D30B4AF6
:101F4000D2E90061A41B24F01F0365EB01006409C2
:101F50009B1941EB000144EAC060C2E9003102B0C4
:101F6000BDE8704002F072B902B070BDC801002037
:101F700010B500220121E420FFF7A2F8124A002048
:101F8000D2F8183723F44033C2F8183700F07CFF3A
:101F90000E4B0446984208D101200D4901F002F889
:101FA000A04205D00B4B98420AD04FF0FF3010BD35
:101FB0006722094B02201A60FFF792FC0020F6E727
:101FC0006FF00B00F3E700BF00200E500000AD0BD8
:101FD0000C0000200200AD0B5804002007B5684635
:101FE00000F020FF0098074AD2E90032C01A019B96
:101FF0004FEA501063EB020340EAC36003B05DF8A0
:1020000004FB00BFC80100207FB5431C18BF20EAB5
:10201000E07502A808BF6FF0004500F003FF0299C9
:102020000E4B2020D3E900268C1A039961EB06039E
:102030002146C5FB0013402973F1000436BF014659
:1020400021F01F01002352184FF0010146EB03035A
:102050000091034801F00AF804B070BDC8010020E7
:1020600004000020064BD3F840231C2A05D1D3F8E6
:102070004403431E5842584170470020704700BF38
:1020800000C0FF0003689A070CD50368DB070DD575
:102090000922074BC3F80C250F22C3F8042501229F
:1020A0001A60FEE7034B0360EF3B0360704700BF1D
:1020B00000801050F000FA50012208B5334B34482C
:1020C000C3F80028FFF7DEFF0830FFF7DBFF08301A
:1020D000FFF7D8FF0830FFF7D5FF00F5F470FFF7E2
:1020E000D1FF2C4AD2F88C3043F44063C2F88C30D4
:1020F0000022D30003F57F0303F54043D3F8001417
:1021000001310AD0D3F8001439B1D3F800140132E8
:10211000D3F80434402A0B60EBD11C4BD3F8402495
:102120007AB3FFF79FFF48B11B4BD3F834231B4B07
:102130009A429EBF154B1A4AC3F84026FFF792FFFA
:1021400018B1184B184AC3F8AC27FFF78BFF48B1FA
:1021500034220E4BC3F82426D3F83C2622F4002266
:10216000C3F83C260323114A0A49C2F81835D1F8AE
:102170008C3043F44063C1F88C300023C2F8A035A2
:1021800008BDC822C3F84024CBE700BF00001250AE
:1021900000C50D5000ED00E000C0FF00001D0A1852
:1021A00040E0A91E00A0085078000A0400B00450C6
:1021B00030B50468ACB1B4FA84F30122C3F11F0353
:1021C000DBB29A4024EA0202D0E8EF5FA54204D1D4
:1021D000C0E8EC2FBCF1000FF6D1EAD102480B7039
:1021E00030BD0248FCE700BF0000AD0B0200AD0BA4
:1021F00010B50368CB40DB0710D401238B40026885
:1022000043EA0201D0E8EF4F944204D1C0E8EC1F4A
:10221000BCF1000FF6D1F2D1014810BD0148FCE736
:102220000000AD0B0400AD0BF7B5064648B301281E
:1022300025D104224FF4807371202F490024C1F866
:102240000803012002F1A04203F1A04303F5871324
:1022500002F5871210601C601B68284BD3F84033CE
:102260001C2B13D0864201D10DF10704002342F24A
:102270001075214F8DF8073066B1012E28D003B0BC
:10228000F0BD14224FF484730420D6E7012EEDD163
:10229000CE60E9E7D7F84C3403F480333CB9002B27
:1022A000EDD0012003F0CCF8013DF3D1E7E7D7F8FA
:1022B0004C2402F003022270002BE0D09DF807307E
:1022C000002BDCD1012003F0BBF8013DD4D1D6E7CF
:1022D000D7F80C3403F480333CB9002BCFD0012065
:1022E00003F0AEF8013DF3D1C9E7002B0CBF012389
:1022F00000232370E2D1C2E700E0105000C0FF00CD
:10230000044B1A7922B9012218601A7102487047E9
:10231000024870475C0400200000AD0B0C00AD0BC0
:1023200008B5084B1B6843B140F20510FEF7BAFE32
:1023300018B940F20510FEF793FE0022024BC3F8D5
:10234000402408BD5C04002000E0105010B510B11E
:10235000012845D010BD324BD3F84C14D3F84C248F
:10236000C80324D502F00303012B04D013B10020CD
:10237000FFF75AFF00232A4A0420C2F840341022F3
:102380004FF48473002103F1A04303F58713196010
:102390001C68012402F1A04202F587121460214A50
:1023A0001268002A36D01E4BC3F80403D2E7D3F8D4
:1023B0004824D107DED5D3F850249207D7D4194A40
:1023C00012681AB10422C3F80423C3E7D3F8082122
:1023D000002AFBD00022C3F80821D3F80831B9E75E
:1023E00000220F4BC3F81021D3F81011C3F81821A5
:1023F000D3F81811C3F81421D3F814210A4AD2F8DB
:1024000040231C2A04D000224FF480737120B9E7C6
:102410009860F8E71A68002AFCD019601B6899E7F1
:1024200000E010505C04002000C0FF0070B50025E3
:102430001D4C1E4ED4F80C3303B970BDB3FA83F3B0
:10244000C3F11F039A0002F5807292B202F1A0421A
:1024500002F58712156012680122D8B202FA03F35E
:10246000DBB2102BC4F8083311D0402B1AD0042B48
:1024700015D1D4F84C14D4F84C1489070FD1C4F8F2
:102480004024C4F804332261D4F80C33D4E77571C6
:10249000C4F81451D4F814312023C4F80433336839
:1024A0009847F1E77571FAE700E010505C040020EE
:1024B000036803F01F025F2B02604FEA53129ABFBA
:1024C000024B53F822000020704700BFDC6600007A
:1024D000034A4309D35C00F01F001844C0B27047A0
:1024E000547B000070B505460846FFF7F1FF362122
:1024F0002A79174B01FB0202083233F81200C1059A
:1025000025D56C240026C0F3432120F4F85023F88D
:1025100012002A7904FB02340E3434F8020F10F44E
:10252000807F03D0C0F34320814210D00136232E98
:10253000F3D16C200024424302EBC1029C502A7963
:10254000BDE8704000FB02306030FFF751BE70BD47
:1025500014000020F0B50646002487B0114F019109
:1025600017F8012B06AB03EBD20313F8143C02F06F
:102570000702D34013F0010306D10134032CEFD13D
:102580000023184607B0F0BD074A03AD07CA85E827
:10259000070055F824100A6A46F824200A62002A27
:1025A000EBD0EEE7647B00009065000010B50446B8
:1025B0000846FFF78DFF362303FB0400024B08306B
:1025C00033F81000400B10BD1400002010B5044675
:1025D0000846FFF77DFF362303FB0400034B08305A
:1025E00033F81000C0F3400010BD00BF14000020FD
:1025F00010B504460846FFF76BFF362303FB0400C3
:10260000034B083033F81000C0F3401010BD00BF7A
:10261000140000202DE9F04F0D46D0F8141387B0B8
:10262000C9B241F40031AA6D009002F084FF810329
:1026300006462ED50023696E03A8CDE90333059322
:10264000FFF788FFDFF868A1DFF868B10DF10C092A
:102650001AF8013B05EBD30292F8642003F007035C
:1026600022FA03F3DA076AD4534B09F104095345FC
:102670000BF1010BECD14FF40031AA6D009802F080
:102680005AFF696E03A8FFF765FF0028DAD126F428
:1026900000360124002E73D107B0BDE8F08F91FA07
:1026A000A1F1B1FA81F19BF8004041EA44142046BF
:1026B000FFF70EFF083035F81080C8084FEA98037E
:1026C0000193012319F8002001F0070103FA01F139
:1026D00022EA010209F8002002A80294FFF7E8FEAE
:1026E000029A019B203250F82220C8F382075B0730
:1026F000B846C2F3014227D52846D7B22146424602
:1027000002F0FAFE02A80294FFF7D2FE029B2033E9
:1027100050F82330C3F301439F4207D100212046E4
:1027200002F0DBFE3946204602F0D7FE02A80294F2
:10273000FFF7BEFE0122029B02FA03F30362D9F8FF
:1027400000100029ABD18FE7022A0DD103212046CA
:1027500002F0C3FE07F00503012BE7D142462146F4
:10276000284602F0C9FEE1E702212046019202F06C
:10277000B4FE032FF2D0019A032AD7D1022FECE73F
:1027800096FAA6F3B3FA83F304FA03F226EA0206F2
:10279000009A284602EB8303D3F81015D3F81025CE
:1027A000C1F30811C2F3014202F0A6FE72E700BFB6
:1027B000647B0000647B0000677B00002DE9F74329
:1027C00005460846FFF784FE36222B79204F02FB90
:1027D0000303083337F813300E46DB07044635D5BC
:1027E000284602F0CFFE95F8049031464846FFF7A0
:1027F000FFFE60B14846FFF7D9FE0022D5F8008001
:1028000000B208EB8003C3F81025C3F81025284652
:102810003146FFF767FE36222B7901A802FB0344FD
:102820000023083427F814300196FFF741FE019B7E
:1028300000EB8300D0F88020064B134043F00203E6
:10284000C0F88030044803B0BDE8F0830348FAE7DD
:1028500014000020F0F0FCFF0000AD0B0400AD0BF5
:102860002DE9FF47174604460846FFF731FE3E684C
:102870008846054676B394F804904846FFF7A6FECE
:1028800018B14846FFF7B4FEA0BB00234046CDE98F
:1028900000338DF80E308DF80F300DF10F023346F6
:1028A0000DF10E0102F0D0FD36202379644A00FBC1
:1028B0000353083332F8131021F0020122F81310E9
:1028C000237900FB0353083332F8131041F0010160
:1028D00022F813107B68002B45D0267941463046FC
:1028E00093F80090D3F804A0FFF770FE20B1BAF17E
:1028F000000F22D0534839E04FF0360C0CFB06563F
:102900004F49083631F8163023F4604323F0200392
:1029100021F81630BAF1000F0FD0B9F1030FE9D842
:102920007B6826685B68187806EB8006B9F1000FB3
:102930001FD1C6F81095C6F8109536202379404A65
:1029400000FB0353083332F8131021F01C0122F866
:102950001310237900FB0353083332F8131041EAB4
:10296000890122F81310BB6863BB374804B0BDE887
:10297000F087D6F8102522F00302C6F81025226849
:1029800002EB8003D3F8102522F4473222F47C7244
:10299000C3F8102541F6F072D3F8106502EA081268
:1029A00042EA09423243C3F8102523790CFB035352
:1029B000083331F8132042EA403242F0200221F875
:1029C0001320BAE74146D3E900972046FFF78AFD76
:1029D000B9F1000FC9D06C232079194E4343F21886
:1029E000F358994504D153689F4201D100210CE06E
:1029F0006C2303FB00600DF10F016030FFF7D8FB83
:102A0000114B9842B2D19DF80F106C222379534399
:102A100003EBC10346F8039023795343362203EBBB
:102A2000C10333445F60237902FB0353083336F854
:102A3000132042EA412242F4807226F8132094E7E0
:102A4000140000200400AD0B0000AD0B2DE9FF4782
:102A50000546084617461E46FFF73AFD89460446D6
:102A600087B395F804804046FFF7B0FD18B940469B
:102A7000FFF7BEFD68BB362303FB0848DFF8E4A080
:102A800008F108083AF8183013F01C0F02D07B78D0
:102A9000012B1ED001238DF80F3000237A1CCDE9C5
:102AA00000734846BB1C0DF10F0102F0CDFC36222D
:102AB0002B7902FB034308333AF8132042F0030258
:102AC0002AF81320002E4BD049462879FFF77EFDC7
:102AD00018B9254804B0BDE8F08700214FF0360C46
:102AE00030782B68820003EB8003C3F81015C3F81D
:102AF00010152B791B490CFB0343083331F8137075
:102B000027F4604727F0200721F8137077783FB348
:102B10002B68B6781A44D2F810E5144B3F040EEA3D
:102B20000303C2F8103541F6F07307F4403703EAA7
:102B300009133605D2F810E53B4306F480163343FB
:102B400043EA0E03C2F810352B790CFB034408341A
:102B500031F8143043EA403343F0200321F81430B5
:102B60000348B7E7140000200400AD0B0FE0ECFFB2
:102B70000000AD0B30B56C250479044B05FB043423
:102B8000A160017905FB0133DA6030BD140000203B
:102B900070B5067914463046FFF72AFD68B108463D
:102BA000FFF796FC362303FB0600054B083033F88D
:102BB000103004485B0B237070BD0348FCE700BF76
:102BC000140000200000AD0B0400AD0B2DE9F04116
:102BD000064607796C20194D00FB075898F86840A5
:102BE0004CBB404621464622103002F0A7FF21464A
:102BF0003068D8F858608E4213D10023C0F84431B1
:102C0000D0F84431C0F308300130FEF729FA6C23C4
:102C100003FB075501230A4885F868302B66BDE899
:102C2000F081CBB29B0003F58072442B04BF84502B
:102C300083580131DFE70348F1E700BF14000020AB
:102C40000000AD0B0C00AD0B6C210279044B01FBB5
:102C5000023393F86800003818BF0120704700BFA6
:102C6000140000206C235C22007913FB002302482F
:102C70001844FFF7BDBA00BF140000206C235C228B
:102C8000007913FB002302481844FFF791BA00BFF4
:102C9000140000202DE9F34103681746D3F81423EC
:102CA000044692035CBF4FF40032C3F81423067944
:102CB0000D463046FFF79CFC08B33046FFF786FC14
:102CC0008046E0B93046FFF771FC05B22168AD00DF
:102CD00005F5807241F802808A5821682944D1F8AC
:102CE000102542F00102C1F810252FB10122216800
:102CF00002FA00F3C1F8143302B0BDE8F0812846AF
:102D0000FFF7E6FB362303FB06000F4B083033F8D2
:102D10001030C3F38203042B11D0052B11D001A86E
:102D20000195FFF7C5FB019AC368D34003F0010387
:102D3000991C284602B0BDE8F04102F0CEBB032149
:102D4000F7E70221F5E700BF14000020014902481F
:102D5000FFF760BC1400002000A00D50014902489C
:102D6000FFF758BC8000002000C0105070B5002351
:102D700067240126027A94FAA4F1B1FA81F1914212
:102D800003F1010518D100210C24120102F1A04227
:102D900002F56222C2F82C150A4ADBB204FB0323B7
:102DA0000168D960416819610121007A187593683A
:102DB00081400B43936070BD06FA01F12B4624EA73
:102DC0000104D8E7EC000020074B027AD3F8101575
:102DD00021F001010A43C3F810250268C3F8A426B4
:102DE0004268C3F8AC26704700200E50012303FA56
:102DF00000F010F0670F0AD0064B5B68DB4303F06E
:102E000067030342044B054818BF1846704704483F
:102E1000704700BFEC0000200000AD0B0400AD0BBC
:102E20000800AD0B002300222DE9F048C0E9002383
:102E3000114BD3F810359B071CD5EFF311812023DC
:102E400083F31288BFF36F8F4FF0FF356FF040446C
:102E50000A4ED6E900BC5D4574EB0C07F9D3CCF300
:102E60001303C0E900B381F31188BFF36F8F0448E7
:102E7000BDE8F0880348FBE700200E5040270E50C5
:102E80000000AD0B0100AD0BF0B53B4D85B02C78CB
:102E9000002C6DD1394A01AB07CA83E807003849D5
:102EA0001846D1F8102522F00202C1F81025FFF7CC
:102EB0008BFF0723672202F001012144013BCCB2C2
:102EC0004FEA5202F7D1052C54D11A4601272A485D
:102ED000002467265FFA82FC96FAA6F15FFA84FE68
:102EE000E645B1FA81F13DD30132052A017500F1C1
:102EF0000C00EDD10120002422499A0800FA02F2C8
:102F000012F0670F1CBF5C505A580433302BF4D1B9
:102F1000E420FEF7A5F81A4B1B49D3F8102503F55A
:102F2000C07322F00202C3F8902340F6FF72C3F888
:102F3000A82100221A60A3F5807004338B4202603E
:102F4000F8D101240E4B114A1C66114B5D201B6801
:102F5000B3FBF2F358430F4B234398470E482C70B2
:102F600005B0F0BD07FA01F126EA01060134B3E726
:102F70000A48F5E70A48F3E7EC0000209C650000EA
:102F800000200E5000210E50B0210E5040420F0084
:102F900010000020C06500000000AD0B0C00AD0B60
:102FA0000100AD0B73B52A4C054663680E4603F06D
:102FB000010304F1140101A80193FFF7F9F8254B6F
:102FC00098423DD100233370636823F001036360AE
:102FD000A36843F00103A3601F4BD3F810259607A5
:102FE00032D4D3F8102542F00202C3F81025C5B13F
:102FF000D3F8482712F0010202BFD3F8481741F076
:103000000101C3F84817144BD3F84017D3F84417FD
:103010004C00F9D42AB9D3F8482722F00102C3F8AA
:1030200048270E4B0E4A1B68B3FBF2F30A4A03EB28
:1030300043135BB1D2F84017D2F84417490001D4CA
:1030400002B070BD013BF4E70648F9E70648F7E730
:10305000EC0000200000AD0B00200E5010000020FE
:1030600040420F000C00AD0B0700AD0B2DE9F04105
:103070000446007A1D46FFF7B9FE1A4B17469842E0
:1030800006469DF8188029D12046FFF76FFEEFF322
:103090001180202383F31288BFF36F8F227A124BA3
:1030A0009200134400221A60217AC5F31305090126
:1030B00001F1A04101F562211B68C1F82075C1F83A
:1030C000245580F31188BFF36F8FB8F1000F05D03E
:1030D0000123227A9340054AC2F824333046BDE8E2
:1030E000F08100BF0000AD0B00210E5000200E50FB
:1030F000F7B5254A002053689268DB4303F0670365
:1031000013401C46012607460CBB01271F4B1E4DD2
:10311000D3F820630640287D07FA00F333420FD02E
:10312000E96869B10201D5F810C002F1A04202F5C8
:103130006222D2F82435D2F82025CDF800C0884785
:103140000134052C05F10C05E5D103B0F0BD94FA6E
:10315000A4F5B5FA85F5AA0002F58071920806FA81
:1031600002F213420BD001F1A04101F56221D1F826
:1031700000C0BCF1000F02D00F600968104306FACE
:1031800005F524EA0504BFE7EC00002000200E50FE
:10319000036803F01F025F2B02604FEA53129ABFCD
:1031A000024B53F822000020704700BFE866000081
:1031B000142370B505790A4C6B43E618E35833B90C
:1031C0000221006802F03FFA08B101233372142390
:1031D00003FB0544207A023818BF012070BD00BFF0
:1031E000640400202DE9F3470B7F06460C46002BB4
:1031F0004CD0617F278B94F815E094F81680A27E5E
:1032000094F81B90336861B9D4E90150E168D4F8AF
:1032100000C0C3F860C5C3F86455C3F86805C3F8B7
:103220006C150025C3F80CE5C3F80485C3F80875D0
:10323000012742EA0922C3F810253068C0F810516E
:10324000D0F81021C0F80851D0F80821C0F80C516E
:10325000D0F80C21C0F30830FDF702FF04F10F0095
:10326000A27D336810F8011F0AB981F0010107FA45
:1032700005F200293ED0D3F818150A430135042D74
:10328000C3F81825ECD102B0BDE8F0870127DFF8BC
:103290007090043904F1100504F10C0851F804AFE2
:1032A000BAF1FF3F1AD02B78CDF804A001A8D3B112
:1032B000FFF76EFF019B07FA03F3436001A8CDF807
:1032C00004A0FFF765FF019B00EB8300D0F880307E
:1032D00003EA090343F00303C0F88030414505F1D8
:1032E0000105DBD185E7FFF753FF019B07FA03F3E5
:1032F0008360E3E7D3F8181521EA0202BEE700BFB6
:10330000F0F0FCFF2DE9F041142690F804800D4CFC
:1033100006FB08F6A71997F808C0BCF1000F0ED1FC
:10332000A2517B6019B10B7F3B74FFF75BFF142345
:1033300003FB0844012304482372BDE8F0810348DD
:10334000FBE700BF640400200000AD0B0C00AD0BD8
:1033500070B40C4615461A4601791C4B01EB8101ED
:10336000266803EB81010368C3F80467A68876002A
:10337000C3F80867A668C3F82865E668C3F82C6533
:1033800003682668C3F82867A6887600C3F82C6708
:10339000A668C3F84865E468C3F84C45046805F0BE
:1033A000010303EB5505C4F81455D4070CD412F0EF
:1033B000020403D0002B14BF082404240568C5F8B8
:1033C000004270BC02F007B91024F7E76404002043
:1033D000002238B503680579C3F80022012203688A
:1033E00004465A6071B12046FFF7E2FE0028FAD089
:1033F00000222368C3F800251422054B02FB053385
:1034000001221A722046BDE83840FFF7D1BE00BF46
:1034100064040020B22110B51A4802F014F9C10664
:10342000044608D5184BDA68520704D51A6812B159
:10343000012059689047A00608D5134BDA68110798
:1034400004D51A6812B1022059689047220608D59F
:103450000D4BD86810F0100003D11A680AB15968F2
:103460009047A3070DD50022064BC3F80025012283
:10347000054B1A721A6822B1BDE810400320596842
:10348000104710BD00200D506404002038B5EFF344
:103490001185202383F31288BFF36F8F064B9C683E
:1034A00002F015F985F31188BFF36F8F2046BDE850
:1034B0003840FDF777BD00BF7804002038B5094BD0
:1034C00053F82040013053F82050A54200D838BDB1
:1034D000636823B1204602F0FDF80834F5E723685D
:1034E0009847FAE7F4660000012270B52A4B0320E2
:1034F00086B01A70FFF7E2FFFDF75AFB02F006F9FB
:103500000420FFF7DBFF254C254D2646AE4204F193
:10351000300410D300F0CCFB204C224EAC4226D31A
:1035200000F0DAFBFDF77CF91F4A137B23F001035F
:10353000137306B070BD54F80C3C059354F8103C5E
:10354000049354F8143C039354F8183C029354F831
:103550001C3C019354F8203C009354E90A2354E99D
:103560000C0100F0F1F954F8303C5E65CDE7D4E988
:103570000A23B3F1FF3F08BFB2F1FF3F05D052EA83
:103580000301206803D100F067FC3034C6E7314600
:10359000183000F0E5FDF8E7B10A002048650000AA
:1035A00048650000195800006002002008B5034873
:1035B000034A0021121A02F0A5F808BDC801002034
:1035C000B40A0020902370B5134E012203FB00665D
:1035D000002386B0CDE904230F220193CDE9023206
:1035E00014234FF4A0720D4D0D4903FB0055044602
:1035F00002FB00110B4B3046009500F0A5F9737BE0
:103600002C7423F004037373074B013403EBC423BE
:10361000EE606B6006B070BDD00100207804002021
:10362000B81200200F570000B80A0020BFB50020D4
:10363000FFF744FF2B4B03F5006282F3088883F306
:103640000A880024E023284D284E85F82230EC77A4
:103650002C766C76AC766B6A254F43F4E0236B6274
:1036600085F82340FDF71CFCFDF798FD4FF0FF3374
:10367000AB62EB62FDF722FFFDF7B8FD40F20112ED
:103680001C4B1D4D9A81B360C3E91C44DC6702F0FA
:103690000AF80120FFF712FF0220FFF70FFF00F0EA
:1036A0004FFB164B75610593012315494FF480625A
:1036B000CDE9034328463B46CDE90144009400F0A0
:1036C00043F906466A7B284622F004026A7302F038
:1036D00071F82046FFF776FF3A4631462846FDF757
:1036E0003DFD00BFB80A002000ED00E07804002096
:1036F000E9340000F002002060020020677B000037
:10370000F81300202DE9F341044617461E46EFF357
:103710001188202383F31288BFF36F8FC368334A65
:103720007BB180689168884219D057EA060318D1A6
:1037300088F31188BFF36F8F6FF00F0002B0BDE800
:10374000F081916891F90E100133E3609368216173
:10375000A36088F31188BFF36F8F0020EEE7216923
:10376000F2E791F90E1090F90E306FF07E02994257
:10377000A8BF19469142B8BF11468B422DDD01F01A
:10378000D1FF054622464146CDE90076184800F0B3
:10379000EFF90028E1D0EFF31186202383F312889C
:1037A000BFF36F8FA068D0B1236821699C420AD013
:1037B0004BB193F90E309942A8BF19466FF07E03C2
:1037C0009942B8BF194601F0ADFF40B131460848F3
:1037D00000F048FA6FF00A00B0E70025D2E7002DAC
:1037E000F4D186F31188BFF36F8FF3E778040020DC
:1037F000B20A0020F8B583680546002B40D0234A62
:10380000926893423FD1C368012B03D9013BC36047
:103810000020F8BDEFF31187202383F31288BFF354
:103820006F8F0169806801F07DFF2C68A54207D188
:103830000023C5E9023387F31188BFF36F8FE7E7F1
:10384000002CF5D0D4E90032002613605A60637B67
:10385000C4E9006623F002036373A66004F1180054
:1038600002F035F8AC6094F90E3020462B61C4F8B4
:10387000886001F09FFF3946054800F0F3F9C7E77B
:103880006FF01500C5E74FF0FF30C2E77804002065
:10389000B20A002070B5EFF31186202383F312885B
:1038A000BFF36F8F0468A0421BD0D4B1D4E90032BB
:1038B000002513605A60637BC4E9005523F00203BE
:1038C0006373A56004F1180002F001F82046C4F803
:1038D000885001F06FFF3146BDE87040064800F0A7
:1038E000C1B9D0E902329A4218BF0133836086F32E
:1038F0001188BFF36F8F70BDB20A002013B5EFF3CC
:103900001181202484F31288BFF36F8F846844B13F
:10391000013C846081F31188BFF36F8F002002B0F7
:1039200010BD52EA030406D181F31188BFF36F8FF3
:103930006FF00F00F3E7CDE900230246014800F0E5
:1039400017F9ECE7B20A00202DE9F043984685B05C
:1039500000F15803C0E91633109B002503730423BC
:10396000073222F0070643730F9B01EB06090F464F
:1039700083734946C0E906558560C5730446FDF763
:1039800029F90E9B073020F00700A067C4E91C76D8
:1039900002930D9BA9EB000901930C9B4A460093EF
:1039A000394643462046FDF7BDFB064B65659B68DF
:1039B00084F86C5003B1DB6F4846E36705B0BDE89F
:1039C000F08300BF780400206FF00A01094A936871
:1039D000C3F888100849C3F884004B6843F080534B
:1039E0004B60002383F31188BFF36F8F9368D3F884
:1039F000880070477804002000ED00E070B590F971
:103A00000D20437B002A39DBD90637D18269002A91
:103A100034D11D4C63F07F032246437352F8183FA4
:103A200093422CD1E169C0E900210860E06111E016
:103A30009942F8D01B68002BF5D090F90E5093F9FD
:103A40000E60B542F4D0AE42F2DD5968C0E90031F3
:103A500008605860A569954200D005B9E568A3687B
:103A60005A7BD20604D1DA897F2A01D9AA6942B1E8
:103A7000AB4202D0284600F0D1FA656170BDE16921
:103A8000D9E76361FAE700BF7804002038B590F900
:103A90000D200146002A437B04DA03F07F034373C1
:103AA00001F04EFE0D4D2A4652F8184FAB68944275
:103AB00000D004B9EC688B4207D05A7BD20604D1FF
:103AC000DA897F2A01D9A2692AB1A34202D020460D
:103AD00000F0A4FA23466B6138BD00BF78040020D3
:103AE00070B590F90D200146002A437B04DA03F0FB
:103AF0007F03437301F024FE1C4C4B7B224663F092
:103B00007F034B7352F8183FE069934207D1C1E934
:103B100000200160E16111E09842F8D01B68002BA1
:103B2000F5D091F90E5093F90E60B542F4D0AE4243
:103B3000F2DD5868C1E9003001605960A569A368E9
:103B4000954200D005B9E5688B4207D05A7BD20672
:103B500004D1DA897F2A01D9AA692AB1AB4202D0FD
:103B6000284600F05BFA2B46636170BD78040020A4
:103B7000F8B5124B0C46DDE9067611469868104AF6
:103B80001060EFF31182202282F31288BFF36F8F4F
:103B90009D68284601F0E6FDB6F1FF3F08BFB7F18A
:103BA000FF3F06D03A463346064905F1180000F0BB
:103BB000D7FA2046BDE8F840FFF706BF780400209A
:103BC0009804002019580000F8B50446EFF3118658
:103BD000202383F31288BFF36F8F437B49B2DA0649
:103BE00017D18269AAB903F07F031D4D437301F019
:103BF000A7FD2A46437B817363F07F03437352F82A
:103C0000183F93422AD1E869C4E900200460EC61BE
:103C100016E00020A17386F31188BFF36F8FF8BD03
:103C20008342F1D01B68002BEED093F90E70B9429D
:103C3000F6D08F42F4DD5968C4E900310C605C6055
:103C4000AC69944200D004B9EC68AB689C4202D0E5
:103C5000204600F0E3F901206C61DCE7E869E2E767
:103C60007804002049B9EFF3058030B9054B5A6953
:103C70009B689A4201D0FFF7A7BE81F31188BFF37A
:103C80006F8F704778040020034648B9EFF3058230
:103C900032B9064A51699268914201D0FFF794BE49
:103CA00083F31188BFF36F8F704700BF7804002043
:103CB000EFF31181202383F31288BFF36F8F054B3D
:103CC0009A68D37B013BD37381F31188BFF36F8F65
:103CD000704700BF7804002070B5EFF311862023F1
:103CE00083F31288BFF36F8F144DAB68DA7B013218
:103CF000DA732A4652F8184F944200D004B9EC689F
:103D00005A7BD20604D1DA897F2A01D9A2692AB165
:103D1000A34202D0204600F081F923466B6186F36E
:103D20001188BFF36F8FEFF31180202383F3128884
:103D3000BFF36F8FBDE87040FFF7A6BF7804002087
:103D4000024B03F11802C3E90622704778040020F1
:103D500070B5EFF31186202383F31288BFF36F8FC2
:103D60001B4CA168E0690B68814214BF1A4600220F
:103D700049680B605960A368E1692AB9154AC3E92B
:103D800000210B60E3610CE093F90E0092F90E50F4
:103D9000A84218D0854216DD5168C3E900210B60A6
:103DA0005360A5690B4B9D4200D005B9E568A36837
:103DB0009D4202D0284600F031F965613046BDE8E9
:103DC0007040FFF701BE8A42D8D01268D5E700BF25
:103DD000780400209004002050EA01032DE9F0410E
:103DE00005460E4604D1FFF7B3FF0020BDE8F08181
:103DF000831C71F1FF3324DB01F08AFD4419EFF3DA
:103E00001188202383F31288BFF36F8F0F4F104B5D
:103E1000B8681860FFF73AFEB8680E492A4633467C
:103E2000183000F09DF9BA684046537B43F0040314
:103E30005373FFF7C9FD01F06BFD201A20EAE07013
:103E4000D4E76FF00104241AD9E700BF78040020FA
:103E5000980400201958000038B50446183001F0C5
:103E600036FDEFF31185202383F31288BFF36F8FA4
:103E7000637B5A0704D485F31188BFF36F8F38BD75
:103E800023F0040320466373FFF7B8FDEFF30583C7
:103E9000002BF0D12946BDE838400148FFF7E2BECB
:103EA000B20A0020014B9868704700BF78040020D8
:103EB0002DE9F8430446EFF31187202383F312889A
:103EC000BFF36F8F067B16F001060DD087F31188C4
:103ED000BFF36F8F002383F31188BFF36F8F042329
:103EE000184602DFBDE8F883437B1A0704D587F341
:103EF0001188BFF36F8FF5E7D90943F0080250D15D
:103F00004273A36813B1204601F022FC04F11800AB
:103F100001F0DDFCA56D04F15808A84511D04FF063
:103F2000000975B1284601F013FC05F1180001F0F5
:103F3000CEFC2846C5F88890FFF760FDA56DA84522
:103F4000EFD11C4DAB689C4204D1EFF30586003ED7
:103F500018BF0126D5F81880174A904502D0B8F14D
:103F6000000F01D1D5F80C80434502D0404600F047
:103F700055F8C5F8148046B140F201120F4B9A81F2
:103F80000022C3E91C22DA67AB60AB689C42AED169
:103F9000EFF30583002BAAD13846BDE8F843FFF7BD
:103FA00013BD03F07F0343F00803437301F0C8FB24
:103FB000A7E700BF7804002090040020F002002052
:103FC0000122044BC01A044BC0105843034B1A542F
:103FD000704700BF80030020ABAAAAAAB20A002043
:103FE000C3897F2B12D80A4B1B6863B1094B90F928
:103FF0000E201B689A4209DB437BDB0606D1064B89
:10400000C31A18BF012303F0010070470023FAE729
:10401000A00400209C040020D001002070B50E4BAD
:104020000E4C1E7C054606EB460304EBC3042046FB
:1040300001F04DFC00220A4B28469A55FFF7D0FFAD
:1040400048B1084B2046BDE870401A680649013A5D
:10405000D31700F085B870BD7804002080030020DD
:10406000B20A0020A0040020C13F000038B5EFF3E1
:104070001185202383F31288BFF36F8F104B114AF1
:104080009C681068A04206D1FFF7C8FF85F311882D
:10409000BFF36F8F38BD00211B7C11600A4AD35CCF
:1040A000002BF3D02046FFF79BFF0028EED0637B68
:1040B000DB0602D12046FFF713FD2046E4E700BFF0
:1040C0007804002098040020B20A0020074808B5B0
:1040D000074A0849121A01F017FBBDE808400648D4
:1040E000064A0749121A01F00FBB00BF000000206A
:1040F000C80100207C7B00000000002000000020A0
:104100007C7B0000024B1868984208BF0020704773
:1041100040010020034B1B680BB9FDF75FBF002077
:10412000704700BFA404002030B570B10B4B5B6832
:1041300098420AD0036843B1D3E90421D0E9044589
:10414000121941EB0501C3E90421D0E900321360E3
:104150005A600023C0E9003330BD00BF4001002099
:10416000B3F1FF3F08BFB2F1FF3FF8B504461D466B
:1041700016465AD08160EFF31187202383F312880B
:10418000BFF36F8F013275F1FF3321DA6FF0010356
:104190002B49D1E900209B1A4FF0FF3262EB00005F
:1041A0009E1B60EB0500012E70F1000301DA012671
:1041B0000020C4E90460FFF7A5FF224E8446706822
:1041C000BCF1000F0DD1C4E90060046074601CE014
:1041D000FFF7A0FF013645F10005361845EBE0700A
:1041E000E7E7DCE90425D4E90431934271EB050EDD
:1041F0001CDAD21ADCF8043065EB0105CCE90425A1
:10420000C4E900C31C60CCF80440FFF77BFF844284
:1042100007D10D4B1C6824B901F040FB2146FDF786
:10422000F3FE87F31188BFF36F8FF8BD9B1A61EB24
:1042300005018445C4E90431C5D0DCF800C0BFE7FE
:104240009803002040010020A40400202DE9F0473D
:10425000EFF31185202383F31288BFF36F8FDFF80C
:10426000A0900026C9F800000027FFF74BFFDFF8F9
:104270009480D9F80030D8E900ECD91750B1D0E9D2
:104280000442A34271EB020A1ADAE41A62EB010259
:10429000C0E90442002413EB0E034CEB0101C8E912
:1042A0000031C9F8004001F0F9FA2146FDF7ACFEF3
:1042B00085F31188BFF36F8FBDE8F047FFF7D6BED7
:1042C00014EB0E024CEBE473C0E90467C8E9002369
:1042D000FFF72AFF85F31188BFF36F8F8368984734
:1042E000EFF31185202383F31288BFF36F8FD9F882
:1042F00000301B1BC9F80030FFF704FFB9E700BF0F
:10430000A40400209803002010B5EFF311842023AB
:1043100083F31288BFF36F8FFFF7FCFE0346054A55
:10432000D2E90001181841EBE37184F31188BFF35F
:104330006F8F10BD98030020F8B50D4E0D4C0E4D3B
:1043400033680E48984767782B680C48984733685D
:104350000B489847022F08D12478E31F5C425C4148
:104360002B68074898472046F8BD0024F8E700BFAF
:1043700064010020A8040020600100209C010020AE
:104380008801002070B51D4E1D4C33681D489847AC
:104390002378590744BF23F00403237023789A0736
:1043A00005D500F0C1F8237823F002032370164DE1
:1043B00014482B689847336814489847637813B1BA
:1043C000134801F0D6FA002304211148637000F06D
:1043D000CBF82B680D48984733680A4898472378EC
:1043E000DB0705D501F0C2FA237823F0010323701F
:1043F0002B680448BDE87040184700BF64010020E6
:10440000A804002088010020600100209C010020F9
:10441000AC0400202DE9F041FFF78EFF18B1002415
:104420002046BDE8F081364F36483B689847044641
:1044300020B16FF08F04FFF7A5FFF1E7324D2B7825
:10444000D80706D401F090FA04462B7843F0010314
:104450002B702E4E2B483368984710B1002CE8D0B3
:10446000E9E7002CE7D13B68264898470446002836
:10447000DFD12B78990706D400F04EF804462B784C
:1044800043F002032B7033681E4898470028E5D19B
:10449000002CD0D13B681B4898470028C9D133680D
:1044A000184895F8008098470028C2D13B68184802
:1044B000984704460028BCD16B7843B918F0010F27
:1044C00005D0144801F053FA022304466B70336898
:1044D0000F4898470028C1D1002CACD13B6809484F
:1044E00098470028A5D12B7806485A075CBF43F0AF
:1044F00004032B7033689847002890D099E700BFD9
:104500006401002088010020A80400206001002030
:104510009C010020AC0400200122024B002083F803
:1045200080257047B00400202DE9F0410A4C002599
:1045300026464FF0010803272046C4F8208027773D
:10454000013501F0F4F9202D04F12C04F4D10023FD
:1045500086F88035BDE8F081B0040020014B1B686F
:10456000184700BF4801002010B50A46044619B19B
:10457000024B00211B68984710BD00BF4C01002072
:1045800010B50C4C206801F09FFA0B4A1368591CB7
:1045900011604BB9094A4820D2F8003443F00703B0
:1045A000C2F80034FCF75CFD2068BDE8104001F063
:1045B00091BA00BF54010020340A0020008004504A
:1045C00038B5164D286801F07FFA154B1C68013C80
:1045D0001C60ECB94820FCF751FD0722114BC3F8D1
:1045E0000823D3F8002422F00702C3F80024C3F8FC
:1045F0000041D3F80021C3F80441D3F804214FF45B
:104600008072C3F80841D3F80831074BC3F88821FA
:104610002868BDE8384001F05DBA00BF54010020B1
:10462000340A00200080045000E100E070B5114D14
:10463000114E2B68B34212D0FFF7A2FF00F058F8DA
:104640000E4A0F4B0F4952F8040B43F8040B8B42F0
:10465000F9D100F073F820B9FFF7B2FF2E60002403
:1046600006E001F093F90446FFF7AAFF002CF5D00D
:10467000204670BD50010020117365000C670000DA
:1046800000C080511CD3805138B5164CD4F800516D
:10469000C5B1BFF35F8F4FF0A343996ABFF35F8F3C
:1046A000BFF35F8F4FF0FF321A63BFF35F8F0023BA
:1046B000C4F80031D4F800310B4B1868BDE838401D
:1046C00001F00CBAD4F8083153B100F055F801F0FC
:1046D000BBF9C4F80851D4F808310121034BECE7C9
:1046E00038BD00BF008004505C010020580100204C
:1046F00008B5074B186801F0EFF9064B186801F090
:10470000EBF9BDE80840002248201146FCF7D8BC70
:104710005C0100205801002010B5064C236D3BB908
:10472000214651F8503B986901F0A0F90123236517
:10473000014810BD380A0020880A002038B500243E
:104740000B4D0C4BEC662B6003F5C0436B60FFF721
:10475000E3FF50B16B6D2046B3F5007FCCBF4FF443
:1047600080634FF40073AB6038BD0E20FCE700BFE0
:10477000380A00200020805100487047380A002085
:104780002DE9F743002600F10C080096EFF311899C
:10479000202484F31288BFF36F8F8568694005EA8F
:1047A00002070A4055400C496A468560019501F0B0
:1047B00053F8009C44B12046C4F888606566002127
:1047C000246E01F006F8F5E740464946FFF74AFA3D
:1047D000384603B0BDE8F083E15A00002DE9F04F00
:1047E00043688DB015468046029383789A0740F15E
:1047F0000D8100240E78002E00F00A81252E0BD0AA
:104800004B1C0393013441463046029B98470028D5
:10481000C0F2F6800399EDE74E788B1C252E0393AA
:10482000F0D00027B946BB46BBF11F0F38D8A6F120
:104830002003102B0AD8DFE803F02A090930090900
:10484000092109090928092D09091F00A6F13003CA
:10485000092B33D92A2E37D11BF0400F55F8043BD2
:1048600040F08280002BA7BF4BF0200B9946C3F18C
:1048700000094BF0280B01E04BF0010B039B13F8F0
:10488000016B0393002ECFD130E04BF0020B4BF0C5
:10489000040BF3E74BF0080BF0E74BF0100BEDE7E0
:1048A000BBF17F0F19D8A6F13003092BD2D81BF02A
:1048B000400F03D00A2101FB0737DFE70A214BF045
:1048C000200B01FB0939D9E72E2E06D11BF0400F32
:1048D00040F09E804BF0400BD0E76C2E31D02BD8AF
:1048E000682E36D06A2E3CD04C2E3AD0002F46F09F
:1048F0002003B8BF2BF04002A3F16501BCBF002725
:104900001FFA82FB022901D9612B2FD10735072716
:10491000DFF8ACA225F0070508351BF0080F66D0BC
:104920000AEB070B56465E4563D1A4EB0A0AA9EBD6
:10493000070906EB0A026FE1742E9FD07A2E9DD0F4
:10494000D4E71BF0800F18BF4BF4007B4BF0800BBB
:1049500094E71BF4807F18BF4BF4007B4BF4807B03
:104960008CE74BF4207B89E71F4687E7A6F16301BC
:10497000122900F2F080DFE811F013004F00EE0082
:10498000EE00EE00EE004F00EE00EE00EE00EE0056
:10499000EE00FE00E900EE00EE001B00EE00AF00AE
:1049A00055F8043B01270DF1180A8DF81830B4E7CB
:1049B00055F804AB834BBAF1000F08BF9A461BF0C1
:1049C000400F504614BF39464FF0FF3101F0BEF89A
:1049D0000746A2E741462020029B984700280FDBAC
:1049E000013EB742F6D34C44B146A41B98E74E466D
:1049F000F7E7414616F8010B029B9847002892DA28
:104A000098F8023043F0040388F802304FF0FF3486
:104A100020460DB0BDE8F08F1BF0800F34D01BF4A2
:104A2000007F2CD0073525F00705AA4669685AF89B
:104A3000080B2BF010050029ADB237DA404245F4DF
:104A4000806561EB41010DF1180B0A235A4601F014
:104A500089F8A0EB0B0301936B0662D5019B25F04F
:104A600001019F4289B240F3A180002E00F099809D
:104A700015F0100240F09C80BB460D4623E0AA468C
:104A80005AF8040BC117D4E7AA461BF4807F5AF8E2
:104A9000041B01D10846F5E71BF4007F19BF48B29B
:104AA00041F3C01108B241F3C031C2E750EA01033B
:104AB000C9D11BF0400FC6D0002FC4D12BF011027A
:104AC000BB46019795B240F2064115EA01021CBFB0
:104AD0000BF1010B00222CE02BF010020A231FFA2D
:104AE00082FB1BF0800C49D01BF4007115BF073509
:104AF000AA4625F007055AF8040B1EBFAA466968A6
:104B00005AF8080B50EA010545D12BF016051BF0A9
:104B1000400FADB242D0002F40D12BF017020197C9
:104B200095B215F0100248D0019B002E42D103F13E
:104B3000010B29075AD4EB0706D5D9456FDDA9EB40
:104B40000B030199CB465F185B4649E04BF0100B15
:104B500010237826C5E7782B04D1C6F1780343F0FB
:104B60001003BEE741462520029B98470028FFF628
:104B700047AF023447E608230026B2E7AA461BF4F3
:104B800080715AF8040BBDD01BF400711ABFC0B27B
:104B9000614680B2B6E72BF0060295B20DF1180B14
:104BA00054E725F01105BB46ADB28CE70D46B8E7DA
:104BB0003B460D4603F1020BBBE7DDF804B082E78C
:104BC000737B00006C7B0000CDE90432414620205D
:104BD000029B98470028FFF613AF049B059A013308
:104BE0009945F1DCA4EB0B019B46CC180AB3414676
:104BF0003020029B98470028FFF602AF8EB901349F
:104C00002744391B019B994224DC1D4655BB019A60
:104C1000A9EB0B09554622441446914433E0019F09
:104C200092E7023441463046029B98470028E7DA73
:104C3000E6E640F206410D42E2D015F0020F04F123
:104C40000104414614BF2B20202015F4806F18BFAB
:104C50002D20E9E741463020029B01349847002887
:104C6000CFDACDE606AB013D4146585D029B984741
:104C70000028CBDAC4E641462020029B0134984745
:104C80000028FFF6BDAEA9EB0403002BF3DCC1E561
:104C9000704703691B68DB0748BF81F0010119B148
:104CA0008368DB680121184783681B69FAE738B518
:104CB0000021044647F6122540F2E7304FF47A729D
:104CC0000023C4FB0501FBF7DBFBBDE8384000F027
:104CD000A7BD836800EBC101B3F5004F2CBF51F8AD
:104CE000220031F81200704700EBC1018068B0F576
:104CF000004F2CBF41F8223021F8123070470122BA
:104D000008B5FFF7E6FFD04008BD836800EBC1019E
:104D1000B3F5004F08D34B681AB143F001034B6061
:104D2000704723F00103FAE74B881AB143F00103FF
:104D30004B80704723F00103FAE753000122FFF78D
:104D4000D3BFB0F5004F34BF04230823481C0833F9
:104D5000A0EBD300B0FA80F0C0F11F0070472DE93E
:104D6000F0410D4686680446FFF7C9FFB6F5004FCF
:104D7000014601D3012832D03046FFF7E2FF04EBB1
:104D800080010E6996B90122E36882401343E36013
:104D900002220D612B4629462046FFF7A5FF03227C
:104DA00029462046BDE8F041FFF79EBF022231466A
:104DB0002046FFF78EFF0746034629462046FFF7A9
:104DC00093FF0322334629462046FFF78DFF3946DD
:104DD0002B462046FFF788FF02223146E1E7BDE877
:104DE000F081B2F5802F2CBF082304232DE9F04178
:104DF0000026D21A8C18CD1D25F0070524F00704D3
:104E0000641BE408056021462046AC60EE60FFF7B5
:104E100098FF421D9200013002F107074FEAD707C1
:104E20003146A2F1100205F11000B8BF324600F081
:104E300085FE3A4631462846FFF77FFF3346324625
:104E400031462846FFF750FFA4EB070828463146B5
:104E50000122FFF75AFF42463946FFF76EFF3B46F5
:104E6000324639462846FFF73FFF21462846FFF7DE
:104E700064FF4346324621462846FFF735FF214668
:104E800028460122FFF741FF3946BDE8F041FFF710
:104E900066BF002070470FB407B504A951F8040B92
:104EA0000191FBF73FFD03B05DF804EB04B07047E0
:104EB000038B13F0070305D10368002B0CBF002000
:104EC00003207047022B05D1408BB0FA80F04009D7
:104ED00080007047012B05D10368002B0CBF002018
:104EE000052070470020704710B50C4600B111B97D
:104EF0006FF0150010BD081D00F093F80028F9D1DF
:104F0000A368032BF6D9F3E72DE9F0410D460746D8
:104F10001946281D90461E4600F094F8044638B104
:104F20003346424629463846A446BDE8F04160472C
:104F3000BDE8F08110B4EFF31182202484F31288CD
:104F4000BFF36F8F416110BC0121FBF71DBD38B568
:104F50000C46054658B151B10B6843B14B6833B1AB
:104F60001C22002100F0EAFD00202C6138BD6FF00A
:104F70001500FBE770B505460E46FFF7B5FF041EAA
:104F800014DBEFF31182202383F31288BFF36F8FBA
:104F90004FF6FF716B8B2C8B8B4204F0070407D10B
:104FA00082F31188BFF36F8F6FF00A04204670BD43
:104FB000022C0CD101336B8382F31188BFF36F8F06
:104FC0000023224631462846FFF79EFFEEE7062CD7
:104FD00014D8DFE804F004131313041A04000023A8
:104FE00033606B683BB9C5E90066ACB9022128465D
:104FF000FBF7CAFCDAE71E606E60F6E782F3118801
:10500000BFF36F8F6FF00404D0E782F31188BFF312
:105010006F8F6FF08504C9E782F31188BFF36F8F3C
:10502000C4E7034658B1426802F00302012A03D0E4
:10503000032A04D1026812B10020986070476FF013
:10504000150070474268034602F00302032A4FF03E
:105050000002816014BF104600685A6070477047B4
:10506000012801D1EFF30583FEF710BA014600686D
:10507000FFF7F6BF08B5FBF7A9FDBDE80840FBF751
:10508000C9BD00210120FFF7EBBF036F83F30B883D
:10509000704761B662B680F31188BFF36F8F7047B7
:1050A00072B6002383F31188BFF36F8FBFF34F8F66
:1050B00030BF62B6BFF36F8F704772B6002383F3C1
:1050C0001188BFF36F8FBFF34F8F20BF80F311881C
:1050D000BFF36F8F62B6704740E800F313F4803F70
:1050E000D8B208BF6FF01500704730B50C684B6838
:1050F00085B00A894D890094013B24F01F042344A4
:1051000002F01F0242EA451223F01F0369468DF8A0
:1051100008200393FCF7A0F805B030BD0C2203690A
:10512000C9B201FB0233186C00F00700704770B57C
:10513000C9B20369EFF31185202484F31288BFF309
:105140006F8F0C2606FB0134246C14F0C00408D0C9
:10515000A24206D085F31188BFF36F8F4FF0FF3066
:1051600070BD012206FB01331A6485F31188BFF379
:105170006F8F436803EBC1035B6898470020EFE73C
:105180008022FFF7D4BFF8B5069F0469C9B2EFF3D8
:105190001186202585F31288BFF36F8F0C2505FB40
:1051A0000144256C05F0070CBCF1010F0CD12764FC
:1051B00086F31188BFF36F8FC4E90E23436853F859
:1051C000313098470020F8BD05F0C005AF4286F3A6
:1051D0001188BFF36F8F0CBF6FF077004FF0FF3077
:1051E000F1E713B580240094FFF7CDFF02B010BDA6
:1051F00010B41C240069CBB203FB0400002110BCD6
:1052000010470020FDF7A2B8002000F01BB910469F
:10521000FEF740BB022804D0042804D10020FCF78C
:10522000FDBA0120FBE77047436800205B68DB683C
:105230000B607047436802EA01005B6821EA0201E3
:105240005860002099607047436800205B6859608F
:105250007047436800205B689960704743685A68EC
:10526000136821EA03000B405060002093607047F0
:1052700010B503695868F8B1884219D19C6808686C
:10528000A142586000D19860002008602AB15A6895
:105290000A609A68596002B99960002010E0814262
:1052A00006D10868206098688142EDD19C60EBE7E8
:1052B000044600680028F2D1002AE8D16FF01500FA
:1052C00010BD30B543681360057A446804EBC5042B
:1052D000A34202D36FF0010030BD5C798C4201D053
:1052E0000833F0E70020F7E7704743680020DB6BE6
:1052F000C2E9003070472DE9F341BDF820C0032911
:105300000646456804690CF0010C5CD8A87F0128AA
:105310004FF0010004BF5B0852088840002B55D0B5
:10532000934256D22768BA4211D0277987434AD18F
:105330009646BEF5004F41D2226067712A6895F803
:105340001E80C2F80C75C2F80485C2F808E54FF05B
:10535000010E627923FA02F292B277688CF00108AA
:10536000BF6A42EAC83227F81120C7B2BEF1000F67
:105370003DD12A6801F5AC7152F82120002A0EDBDC
:10538000BCF1000F48D0B3FA83F35B0933BB01A82B
:105390000192FCF765FD0123019A93408360217916
:1053A00021EA0701217131B3A3796BBB10230122DC
:1053B000284605F12801FDF7CBFF21E00137082F32
:1053C0004FEA5E0EB5D16FF015001AE09E461A4600
:1053D000C3E74FF0000E47F6FF72BEE701A8019247
:1053E000FCF73EFD0123019A93404360D7E7237900
:1053F0003B432371D8E77068FDF7EAFF0123A371EF
:10540000002002B0BDE8F0810023A371284600F01F
:1054100044F90028FAD0C9E7003B18BF0123B5E7DB
:1054200008B5FEF7F7FF48B1002383F31188BFF3F7
:105430006F8F0423184602DF6FF0040008BD004799
:1054400000F02DB9FCF7F0BEF7B51646DDE90847C8
:10545000019001A81D46FDF72BF8019BB6F1000C49
:1054600018BF4FF0010C00EB83000B1E18BF012387
:10547000002D43EA4C0314BF4FF00C0C4FF0000C0E
:10548000002C43EA0C0314BF4FF4706C4FF0000C77
:10549000002F43EA0C0314BF4FF4403C4FF0000CC4
:1054A000D0F8802043EA0C0322EA030301B1097813
:1054B0000EB13678760019430DB12D78AD00314329
:1054C0000CB12478240229430FB13F783F040C43E8
:1054D0003C43C0F8804003B0F0BD1FB50DF10F0391
:1054E000019300238DF80F101A4619460093FFF719
:1054F000ABFF05B05DF804FB70B5044608461646E0
:10550000FCF7E6FF083034F810300D46DA0509D50F
:10551000C3F3432304EBC3023146284654F8333027
:1055200052689847A3682BB131462846E268BDE827
:105530007040184770BDF0B50446002001270546AD
:10554000844695420AD1D4F8443133B10023C4F8DB
:105550004431D4F8443140F40030F0BDEBB29B004C
:1055600003F580769B0807FA03F3194208D054F834
:1055700006E0BEF1000F03D044F806C0A659184358
:105580000135DEE770B50679044630460D46FDF775
:105590002FF8B0B13046FDF719F890B93046FDF755
:1055A00005F8012322688340C2F81833226803B249
:1055B00002EB8303D3F8102522F00302C3F8102571
:1055C00070BD2846BDE870400021FFF786BFFDF79B
:1055D000F5B8FFF7D7BF30B5022401250C72CA60B9
:1055E0000468C4F80055096879B112F0040F0CBFC3
:1055F00082219221150748BF41F02001D40604689A
:1056000048BF21F08001C4F80013016812F0800047
:1056100008BF01224FEAC30303F110030CBFCA50B5
:10562000C81830BD30B50124A2F58075AD08AC4076
:105630000C4207D0815829B10021815082581A6844
:1056400022431A6030BD002313B50C4601934FF47A
:10565000887201ABFFF7E6FF21464FF48A72FFF72D
:10566000E1FF21464FF48E72FFF7DCFF21464FF435
:105670008272FFF7D7FF21464FF48472FFF7D2FF03
:1056800021464FF48672FFF7CDFF4FF48C7221460E
:10569000FFF7C8FF019802B010BDFDF789BD08B142
:1056A000FCF706B87047704740B1C368587810F0EF
:1056B00001001EBF1878B0FA80F040097047EFF380
:1056C0001183202383F31288BFF36F8FFEE708B5A1
:1056D000FFF7F5FF10B5D0E9003433B90020E268D8
:1056E000537843F00103537010BD204698470028BB
:1056F000F4D00028B8BF4042FF28A8BFFF20E368CD
:105700001870ECE700F01ABA00F00BBA70472024CA
:1057100008B5EFF3118384F31288BFF36F8FFFF79F
:10572000BFFCF6E790F90E308B4201D0FEF74CBA81
:1057300000207047EFF30580003818BF0120704744
:10574000D0E9003213605A600023C0E9003370478B
:1057500008B5FFF7F5FF437B23F0020343730023F3
:10576000836008BD38B504460D46FEF78FF9637BAC
:1057700043F002036373E5B1A5602B689D4209D134
:105780006B68C4E900531C606C6012E06A689A425E
:10579000F6D01B68002BF3D094F90E2093F90E106D
:1057A0008A42F3D09142F1DD5A68C4E900321460B4
:1057B0005C6038BD10B5EFF31184202383F31288A9
:1057C000BFF36F8FFEF71AF984F31188BFF36F8F61
:1057D00010BD38B5EFF31184202383F31288BFF393
:1057E0006F8F002390F86C50427B80F86C302DB1A5
:1057F00021B184F31188BFF36F8F38BD12F0280FE9
:10580000F7D183680BB1FFF7A3FF437B23F00403B9
:105810004373FEF7F3F8ECE701211838FFF7D9BF1F
:1058200070B506460D46FEF7D7FAB5F1FF3F08BF43
:10583000B6F1FF3F04460CD04FF47A7547F61120BD
:10584000002147F612220023C4FB0501FAF718FED7
:1058500070BD4FF0FF30FBE72DE9F04105460E46E5
:105860001746EFF31188202383F31288BFF36F8F5D
:105870000468A0420FD1002088F31188BFF36F8F16
:10588000BDE8F08139462046B0470028F4D16B6866
:10589000A342F0D02468002CF4D1ECE710B5FEF759
:1058A00031FC0446FEF736FC74B1D4E904321B1A0D
:1058B00062EBE072B3F1004F72F1000104DA002AEA
:1058C000ACBF1846002010BD6FF00040FBE7024659
:1058D00038B5EFF31185202383F31288BFF36F8F60
:1058E000036893B1FEF70EFC04461046FEF71CFC5D
:1058F000844204D1FFF7D2FF0021FCF785FB002092
:1059000085F31188BFF36F8F38BD6FF01500F7E78F
:1059100008B5FEF7F9FC08BD10B50446406A10B1A1
:10592000A16A00F029F80020C4E9090010BD38B5CB
:105930000546FFF7F1FF2B7F0446012B0ED0023BFB
:10594000012B0ED82B6A012B18BF6FF096042C2266
:105950000021284600F0F2F8204638BD2B6A002BC3
:10596000F2E76FF09604F2E7FEF760BE70470020A2
:10597000704700207047704710B5044608B1FEF725
:10598000F3FD2046BDE81040FEF7E8BD0A2840DCE4
:10599000C31C22DA10F1400F47D010F13F0F2BDA71
:1059A00010F1410F44D010F1550F44D010F1490FC0
:1059B00008BF6FF0840018BF6FF086007047092899
:1059C0002AD8DFE800F00529290816293829292FC7
:1059D0006FF09800704700207047C31C0D2B1BD838
:1059E000DFE803F0072F1A1C1A1A1A1A1A1A1D1ABE
:1059F0001A1D6FF08500704710F1210F1ED00BDBD0
:105A000010F1200F1DD010F1100F08BF6FF094009F
:105A1000D1E764380928D2D96FF0860070476FF05B
:105A2000940070476FF08C0070476FF084007047EF
:105A30006FF0890070476FF0930070476FF0880037
:105A400070476FF09200704738B50225036804462E
:105A50009D6000F006F818B1236803F58053DD61FE
:105A600038BD0369186800F400307047C0F30B03B9
:105A7000482B4B6028BF482310F4003F8B6008BFC1
:105A80000023CB6010F4803308BFC1E9013300F478
:105A90007003B3F5700F14BF00238B6800284FF01C
:105AA000010C4FF008028B60B8BF0023C1E905C2AA
:105AB000B8BFC1E905337047FDF79CBE4FF0FF3218
:105AC0004FF0FF33FDF71EBE4FF0FF324FF0FF33B4
:105AD000FDF718BEFDF78EBE00F01AB800F01DB835
:105AE00010B5846E426E4B68E40703EA02030BD5DF
:105AF0009A420BD1012380F86C300B680366086072
:105B00001830FFF7E4FE01E0002BF3D1002010BDB8
:105B10000023C0E90000836070474FF0FF32FEF7BA
:105B20002FBE0A44431E914200D1704710B511F8B0
:105B3000014B914203F8014FF9D110BD02440346D5
:105B4000934200D1704703F8011BF9E70246014474
:105B500010B58A42134603D01C780132002CF8D1CC
:105B6000181A10BDF0B5C3F13707044603F01F0340
:105B70001046FFB2082BE6B232D0102B3DD065089C
:105B8000A40845EAC17544EA81748A082D1942EBDC
:105B90005102290941EA02716D1842EB1212290AD9
:105BA00041EA02616D1842EB1222290C41EA0241DE
:105BB0006D1842EB1242AD1842F10002EC0844EAC3
:105BC0004274D10804EB8402A6EB4205EDB2092D24
:105BD0000CD90134A5F10A0541F10001EDB212E042
:105BE000E40806F0070544EA4174C908303554EA70
:105BF000010200F8015BBDD1F0BD240906F00F05DC
:105C000044EA01740909092D84BFED19EDB2EDE7ED
:105C10000148006870470000A003002098A8FF7F9B
:105C200001000000FD150000000000008D170000BD
:105C30006C5C0000D5190000945C0000D5190000D0
:105C4000805C0000D5190000A85C0000711F0000F6
:105C500000000000D915000000000000811E0000B7
:105C6000BC5C00002154000000000000127B00001A
:105C7000086600007465000068010020D803002059
:105C80001F7B000024660000486500006A010020B8
:105C90002C0400202B7B00003C66000048650000BF
:105CA0006C01002038040020367B000054660000A0
:105CB000486500006E010020440400204A7B00007B
:105CC000846600006C650000700100205004002014
:105CD000000000008350000000000000835000001E
:105CE000000000008350000000000000835000000E
:105CF00000000000835000000000000083500000FE
:105D000000000000835000000000000083500000ED
:105D100000000000835000000000000083500000DD
:105D200000000000835000000000000083500000CD
:105D300000000000835000000000000083500000BD
:105D400000000000835000000000000083500000AD
:105D5000000000008350000000000000835000009D
:105D6000000000008350000000000000835000008D
:105D7000000000008350000000000000835000007D
:105D8000000000008350000000000000835000006D
:105D9000000000008350000000000000835000005D
:105DA000000000008350000000000000835000004D
:105DB000000000008350000000000000835000003D
:105DC000000000008350000000000000835000002D
:105DD000000000008350000000000000835000001D
:105DE000000000008350000000000000835000000D
:105DF00000000000835000000000000083500000FD
:105E000000000000835000000000000083500000EC
:105E100000000000835000000000000083500000DC
:105E200000000000835000000000000083500000CC
:105E300000000000835000000000000083500000BC
:105E400000000000835000000000000083500000AC
:105E5000000000008350000000000000835000009C
:105E6000000000008350000000000000835000008C
:105E7000000000008350000000000000835000007C
:105E8000000000008350000000000000835000006C
:105E9000000000008350000000000000835000005C
:105EA000000000008350000000000000835000004C
:105EB000000000008350000000000000835000003C
:105EC000000000008350000000000000835000002C
:105ED000000000008350000000000000835000001C
